:100000000C94D9020C9420030C9420030C9420032C
:100010000C9420030C9420030C9420030C942003D4
:100020000C9420030C9420030C94BB200C94772098
:100030000C9420030C9420030C9420030C942003B4
:100040000C9420030C94A5270C9420030C942003FB
:100050000C9420030C94E5270C9420030C942003AB
:100060000C9420030C9420030C9420030C94200384
:100070000C9420030C9420030C9420030C94200374
:100080000C9420030C9420030C9420030C94200364
:100090000C9420030C94200305010902A1018502A0
:1000A0000901A1000509190129051500250195057A
:1000B000750181029501750381010501093009313E
:1000C0001581257F95027508810609381581257FE0
:1000D000950175088106050C0A38021581257F9562
:1000E0000175088106C0C005010980A101850319B9
:1000F000012AB700150126B700950175108100C0CF
:10010000050C0901A101850419012AA00215012687
:10011000A002950175108100C005010906A10185A5
:1001200005050719E029E7150025019508750181E6
:10013000020507190029EF1500250195F0750181C9
:1001400002050819012905950575019102950175AA
:10015000039101C00660FF0961A101096215002633
:10016000FF009520750881020963150026FF0095A0
:100170002075089102C005010906A101050719E0D3
:1001800029E715002501950875018102950175087B
:1001900081010507190029FF150026FF0095067546
:1001A0000881000508190129059505750191029539
:1001B0000175039101C0000101010101010101016B
:1001C0000202020202020202020303030303030308
:1001D00003040404040404040505050505060606D5
:1001E0000606070707070708080808090909090A92
:1001F0000A0A0B0B0B0C0C0C0D0D0D0E0E0E0F0F37
:100200000F101011111112121313141415151616C4
:100210001717181819191A1A1B1B1C1D1D1E1E1F33
:100220002020212222232424252626272829292A82
:100230002B2C2D2D2E2F30313232333435363738AA
:10024000393A3B3C3D3E3F404142434445464748A6
:10025000494A4C4D4E4F50515354555658595A5B7C
:100260005D5E5F616264656668696B6C6D6F70721C
:10027000737577787A7B7D7E8082838587888A8C88
:100280008E8F91939596989A9C9EA0A2A3A5A7A9BC
:10029000ABADAFB1B3B5B7BABCBEC0C2C4C6C9CBB3
:1002A000CDCFD1D4D6D8DBDDDFE2E4E7E9EBEEF069
:1002B000F3F5F8FAFDFFFFAA7F55402223252628F3
:1002C000292A2C2D2F3032333536383A3B3D3E40EB
:1002D00042434547494A4C4E5051535557595A5C31
:1002E0005E6062646668696B6D6F71737577797B48
:1002F0007D7F81838587898A8C8E90929496989A47
:100300009C9E9FA1A3A5A7A8AAACAEAFB1B3B4B65B
:10031000B8B9BBBCBEBFC1C2C3C5C6C7C9CACBCCB6
:10032000CDCED0D1D2D2D3D4D5D6D7D7D8D9D9DA89
:10033000DADBDBDBDCDCDCDCDCDDDDDDDDDCDCDCFE
:10034000DCDCDBDBDBDADAD9D9D8D7D7D6D5D4D326
:10035000D2D2D1D0CECDCCCBCAC9C7C6C5C3C2C1FB
:10036000BFBEBCBBB9B8B6B4B3B1AFAEACAAA8A758
:10037000A5A3A19F9E9C9A98969492908E8C8A8910
:10038000878583817F7D7B79777573716F6D6B69ED
:1003900068666462605E5C5A5957555351504E4CC2
:1003A0004A4947454342403E3D3B3A383635333271
:1003B000302F2D2C2A292826252322AA000151A9D5
:1003C00000000053005400550056005F00600061BB
:1003D0000057005C005D005E00000059005A005BA1
:1003E00000580062000000630000000400010005E6
:1003F000000000C25CC35CCA5CC95C010001000172
:1004000000010001000100010000000100010001E5
:1004100000010001000000010000000000000000D9
:100420000000000000000000000000000000007E4E
:100430000F00D4FFFFFFC70000007800000000009D
:100440000000002A2B28000000000000000000002F
:1004500000000000000029000000002C1E342021B4
:100460002224342627252E362D3738271E1F2021FB
:1004700022232425263333362E37381F040506075A
:1004800008090A0B0C0D0E0F101112131415161774
:1004900018191A1B1C1D2F3130232D350405060792
:1004A00008090A0B0C0D0E0F101112131415161754
:1004B00018191A1B1C1D2F3130354C00000000008C
:1004C000000000000000010204060A0F17202C3A69
:1004D0004A5D71879DB3C7DAE9F5FCFFFCF5E9DAFF
:1004E000C7B39D87715D4A3A2C20170F0A06040294
:1004F000010000000000000000000032190A0004A2
:100500007F3F1F643214643214783C1E1E140A05A7
:1005100009025B00030100A0FA09040000010301C5
:100520000100092111010001224000070581030893
:10053000000A090401000203000000092111010062
:100540000122220007058203200001070503032082
:10055000000109040200010300000009211101004B
:100560000122BC000705840320000A1201100100CB
:100570000000084B41150001000102030104033093
:10058000000000140350005300310037005F0041A9
:100590000054003900300000001203410074006C68
:1005A0000061006E0074006900730000000403091C
:1005B000040011241FBECFEFD0E1DEBFCDBF04B6D3
:1005C00003FE27C080918A0690918B06A0918C062D
:1005D000B0918D068730904BA740B04BD1F410926C
:1005E0008A0610928B0610928C0610928D0614BE0D
:1005F00084B7877F84BF0FB6F894A8958091600078
:10060000886180936000109260000FBEE0E0F8E720
:10061000099526E0A6EAB1E001C01D92AA38B2070A
:10062000E1F711E0A0E0B1E0E2E7F3E502C00590F8
:100630000D92A63AB107D9F70E94A8210C946C2913
:100640000C940000E8EDF0E080818C7F80831092B4
:10065000E2001092DA001092E100A0EEB0E08C917E
:1006600081608C9380818F77808319BCA7EDB0E087
:100670008C918E7F8C9380818F7E80831092520626
:1006800008952091E4003091E50095E6A9012091BC
:10069000EC00822F817020FF06C08091E80080FF6F
:1006A00006C080E008952091E80022FD1AC08091E4
:1006B0008506882389F0853089F08091EB0085FDDF
:1006C0000FC02091E4003091E50042175307F9F282
:1006D0009150E1F684E0089582E0089583E0089562
:1006E00081E00895EF92FF920F931F93CF937C01C7
:1006F0008B010E944103C82F811117C08091E8002F
:1007000085FD0BC08091E8008E778093E8000E9401
:100710004103882399F3C82F08C0F70181917F0115
:100720008093F1000150110949F78C2FCF911F914F
:100730000F91FF90EF900895CF93FC018091850673
:10074000843001F5C091E900CF702091EC00922F28
:10075000917020FD90E8C92B82E08093E9008091A0
:10076000E80080FF0CC050E040E060E270E0CF01A4
:100770000E9472038091E8008E778093E800CF702A
:10078000C093E900CF91089580917D0687FF13C043
:100790008091E80082FF06C08091E8008B7780930B
:1007A000E80004C0809185068111F2CF0895809100
:1007B00085068823D9F38091E80080FFF8CF8091E7
:1007C000E8008E77ECCF982F9093E900242F762FB6
:1007D00050E0891731F07091EC002091ED005091BC
:1007E000F00021FD07C09F5F973071F78093E9000B
:1007F00081E008953091EB003E7F3093EB00309123
:10080000ED003D7F3093ED003091EB00316030938F
:10081000EB007093EC002093ED005093F0002091DA
:10082000EE0027FDE0CF80E00895CF92DF92EF92B7
:10083000FF920F931F93CF93DF93C8EDD0E0888191
:100840008F7E8883E7EDF0E080818160808381E0A6
:100850008093520688818C7F888302EE10E0D80155
:100860001C921092DA0081EEC82ED12CD6011C9277
:1008700088818F77888388818068888388818F7D4D
:10088000888380818068808319BC109285061092CD
:100890007C0610927B0610927A0690EEE92EF12CDF
:1008A000F70180818B7F808388818160888342E02B
:1008B00060E080E00E94E303D6018C918E7F8C93F0
:1008C000F801808181608083808188608083D70186
:1008D0008C918E7F8C93888180618883DF91CF910A
:1008E0001F910F91FF90EF90DF90CF900895FC0142
:1008F000809183069091840686179707A0F0611572
:10090000710529F49091E8009E779093E80090E0BB
:100910006115710551F4911108C08091E80082FFC2
:1009200033C080E00895BC01F2CF80918506882312
:10093000B9F18530B9F18091E80083FD2FC0809135
:10094000E80082FDEACF8091E80080FFE1CF2091AE
:10095000F2003091F3006115710519F0283031056E
:1009600058F091E02830310509F090E02091E8003E
:100970002E772093E800CCCF81918093F1006150D5
:1009800071092F5F3F4FE7CF80918506882341F0A3
:10099000853041F08091E80083FFBFCF81E008956A
:1009A00082E0089583E0089580918506843011F4F3
:1009B00082E0089581E00895089580915906089590
:1009C00090913A06803F41F480913B0687FD10925A
:1009D0003B06992371F00895813F29F480913B06ED
:1009E0001816ACF3F6CF823F81F497FFF2CF109246
:1009F0003A0680913B0690913C06892B90913D06EA
:100A0000892B49F7109235060895833F19F419167A
:100A100074F3DFCF893F39F480913C061816CCF689
:100A200010923C06D6CF8A3F29F480913C0687FF7E
:100A3000D0CFF6CF8B3F39F480913D0687FFC9CFE9
:100A400010923D06C6CF8C3F29F480913D061816C2
:100A5000BCF3BFCF843F31F4809139068E7F809301
:100A60003906B7CF853F21F4809139068D7FF7CFC6
:100A7000863F21F4809139068B7FF1CF873F21F4A7
:100A800080913906877FEBCF883F21F4809139062A
:100A90008F7EE5CF8D3F31F480911A068E7F809353
:100AA0001A0697CF8E3F21F480911A068D7FF7CFDB
:100AB0008F3F09F08ECF80911A068B7FF0CF809107
:100AC0001A0680FD16C081FD16C082FD16C08091F9
:100AD00035068823A1F0883280F428E0829FC00187
:100AE000112468E270E00E943728862F672B39F0C6
:100AF000089582E0089584E0089588E0089581E0F3
:100B0000089580911A0680FD14C081FD14C082FDF5
:100B100016C080913506882381F0843180F422E369
:100B2000829FC001112464E170E00E943728862F63
:100B300008958CE0089589E1089585E0089582E3A1
:100B40000895803F31F40E948105819580933B0692
:100B50000895813F19F40E948105F8CF823F31F456
:100B60000E948105819580933A060895833F19F488
:100B70000E948105F8CF893F29F40E945F05809388
:100B80003C0608958A3F21F40E945F058195F7CFC6
:100B90008B3F31F40E945F05819580933D06089557
:100BA0008C3F19F40E945F05F8CF843F31F48091A7
:100BB00039068160809339060895853F21F480913C
:100BC00039068260F7CF863F21F480913906846030
:100BD000F1CF873F21F4809139068860EBCF883FC1
:100BE00021F4809139068061E5CF8D3F31F4809109
:100BF0001A06816080931A0608958E3F21F4809131
:100C00001A068260F7CF8F3FB9F780911A06846089
:100C1000F1CF9C014FB7F89480914E0690914F060A
:100C2000A0915006B09151064FBF821B930B0895BF
:100C30002FB7F89480914E0690914F06A0915006E0
:100C4000B09151062FBF0895E0912606F091270636
:100C5000309749F082E0809338060480F581E02DDA
:100C600088E396E009950E941806909334068093D5
:100C70003306089580911506811110921506089586
:100C80008091140690911306892B90911206892B5E
:100C90008093A601909115069923A1F0892B80934A
:100CA000A60180911F01882341F18091240687FFCE
:100CB00024C08EE1E8EAF1E090E0815000F5911166
:100CC0000E943A06E0912606F09127063097E1F05F
:100CD00080911F01882359F08091240687FF07C067
:100CE0008091A6018093A70185E08093A6010280F0
:100CF000F381E02D86EA91E0099486E0DBCF219133
:100D00002223D9F29F5FD9CF089590911F01992393
:100D1000D1F09091240697FF16C0E82FE695E6954E
:100D2000E695EE31E0F4F0E0EA55FE4F282F27700B
:100D300081E090E001C0880F2A95EAF780959281C2
:100D4000892382830895E8EAF1E09191891303C031
:100D5000DF0111971C9291E0EE3AF907B1F708957F
:100D600090911F019923C1F09091240697FF14C020
:100D7000E82FE695E695E695EE31F8F4F0E0EA55D1
:100D8000FE4F877021E030E001C0220F8A95EAF71C
:100D90008281822B82830895A8EAB1E0EFEF90E090
:100DA0002D91821751F0EF3F19F4211101C0E92F65
:100DB0009F5F9630A9F7EF3F09F408950E2E000CBF
:100DC000FF0BEA55FE4FE6CF990F990F890F982F29
:100DD000977086958695869525E0829FF00111246F
:100DE000EE5FF94F50E040E080E0219130E0092EC5
:100DF00002C0369527950A94E2F721703327042E16
:100E000001C0220F0A94EAF7822B4F5F5F4F4530F3
:100E1000510559F70895990F990F890F982F9770D9
:100E200041E001C0440F9A95EAF78695869586952C
:100E300095E0899FF0011124EE5FF94F30E020E04A
:100E400070E05191DF011197CB01022E02C09695FF
:100E500087950A94E2F781708195852784238527F9
:100E60008C932F5F3F4F2530310559F708958091BE
:100E700001069091D005981301C008958F5F877087
:100E8000FACF882341F080959091140689238093AE
:100E900014060C9440060895882339F090911406A6
:100EA000982B909314060C94400608952091C0024C
:100EB0003091C1022817390771F09093C1028093D5
:100EC000C002E0912606F0912706309721F00084B9
:100ED000F185E02D099408952091BE023091BF0262
:100EE0002817390771F09093BF028093BE02E091FA
:100EF0002606F0912706309721F00680F781E02D35
:100F00000994089510921306109212060E9440064A
:100F100086E0E8E3F6E0DF011D928A95E9F710929A
:100F2000350610921A060E94240690E080E00E9486
:100F30006C0790E080E00C945607609386067093EF
:100F4000870680938806909389060C9482070F93F6
:100F50001F93609186067091870680918806909114
:100F600089068B019C010670112722273327063042
:100F700011052105310529F468601F910F910C942A
:100F80009D07677FFACF0F931F9341E050E060E029
:100F900070E004C0440F551F661F771F8A95D2F773
:100FA000CB01BA0160957095809590950091860669
:100FB000109187062091880630918906602371235D
:100FC000822393231F910F910C949D0790911106FA
:100FD0008095892380931106282F277071F4282F7C
:100FE000082E000C330B9217130639F08595859562
:100FF00085950E94C3071092110608950F931F93C1
:1010000041E050E060E070E004C0440F551F661FEF
:10101000771F8A95D2F78091860690918706A091D6
:101020008806B09189068A019B01082B192B2A2B6F
:101030003B2BC901B8011F910F910C949D0760E0F3
:1010400070E0CB010C949D07609316067093170611
:1010500080931806909319060C948207E091260657
:10106000F0912706309721F00190F081E02D09944E
:1010700080E00895882309F459C0823871F40E94F1
:101080002E0881FF53C089E30E94B0060E944006EB
:1010900089E30E9485060C944006833859F40E9427
:1010A0002E0880FF43C083E50E94B0060E944006E0
:1010B00083E5EFCF843859F40E942E0882FF36C0B2
:1010C00087E40E94B0060E94400687E4E2CF9CEFCE
:1010D000980F913AF0F290E2980F983088F4877068
:1010E00021E030E0A90102C0440F551F8A95E2F7C4
:1010F000CA01809590911406892380931406CBCF62
:101100009BE5980F933020F490E080E00C946C07FE
:1011100098E5980F973120F490E080E00C94560702
:10112000803F20F00E94E0040C9424060895FA0108
:10113000811101C0FB01099480915306982F9E7F75
:1011400061F4817082608093530680915606893CD9
:1011500018F088EC8093560608958635B0F38170B8
:101160008465F1CFAF92BF92DF92EF92FF920F931F
:101170001F93CF93DF93182F062FE901493C08F006
:1011800048ECE42FF0E0EA54FE4F011110C0E49166
:101190005E2F4E2F4983E8835A83DF91CF911F91B1
:1011A0000F91FF90EF90DF90BF90AF900895202FA8
:1011B00030E04491D42EE42EF12C56E0159FC0016E
:1011C0001124EFEFF0E0BF010E942328812F90E06F
:1011D000880F991F55E5569FD001579FB00D1124D8
:1011E0008A1B9B0B982F990F890F5F01A21AB30AD4
:1011F000AE9CD001AF9CB00DBE9CB00D11245B2FF6
:10120000089F80011124012F11275F01A01AB10A44
:10121000AE9C8001AF9C100DBE9C100D11245F018F
:10122000A81AB108A29EC001A39E900DB29E900D77
:101230001124892F9927E81BF90BEE9DC001EF9D22
:10124000900DFE9D900D1124E92F62307105A1F0E3
:1012500050F46115710509F49DCF6130710581F07D
:10126000EB2F512F97CF6430710569F080F0663015
:10127000710509F48FCFF4CFE42F4B2F592F8ACF6C
:10128000E42F412F87CFEB2F542F492F83CF4B2FA4
:101290005D2DE12F7FCF9091240692FF06C0282F6D
:1012A00028712830F9F4877F846093FF06C0282FC7
:1012B00028712831F1F4877E84612091250620FF72
:1012C00006C0382F38713830D9F4877F816021FF0C
:1012D00006C0282F28712831D1F4877E816194FDC2
:1012E000877E0895282F24712430F9F68B7F88603B
:1012F000DCCF282F2471243101F78B7E8861DDCF6C
:10130000382F3171313019F78E7F8860E0CF282F68
:101310002171213121F78E7E8861E1CF80FF0BC0E2
:10132000509A589881FF09C0559A5D9882FF07C06E
:10133000549A5C9808955098F4CF5598F6CF5498E5
:10134000F8CFCF93DF9300D00F92CDB7DEB7909157
:101350008506943011F589837B836A839093E90035
:101360008FEF9091E800815095FD06C095ED9A951C
:10137000F1F700008111F5CF8091E80085FF0DC0E5
:1013800050E040E063E070E0CE0101960E947203FD
:101390008091E8008E778093E8000F900F900F9077
:1013A000DF91CF910895CF93DF93EC010E94D40495
:1013B000823011F0843031F4BE0184E0DF91CF91AE
:1013C0000C94A109DF91CF910895BC0183E00C94A6
:1013D000A109CF93DF93EC010E94D404823011F075
:1013E0008430F9F484E08093E9008FEF9091E80075
:1013F000815095FD06C095ED9A95F1F70000811199
:10140000F5CF8091E80085FF0CC050E040E066E039
:1014100070E0CE010E9472038091E8008E77809385
:10142000E800DF91CF910895CF93DF93EC010E9404
:10143000D404823011F08430B9F580911F018823E3
:10144000B1F18091240687FF32C060E284E080938E
:10145000E9008FEF9091E800815095FD06C095ED71
:101460009A95F1F700008111F5CF8091E80085FF92
:101470001BC080911F0170E050E040E0811104C06A
:1014800050E040E068E070E0CE010E94720380917D
:10149000E8008E778093E80080E2FE01AAE5B6E0DE
:1014A00001900D928A95E1F7DF91CF91089568E060
:1014B00081E0CDCF81E08093E00080E28093D8008E
:1014C0001092C9008FE19EE40197F1F700C000007F
:1014D00087E090EBDC0180938A0690938B06A093C3
:1014E0008C06B0938D0688E19CE00FB6F894A89521
:1014F000809360000FBE90936000FFCFCF93C82F02
:10150000882309F4AEC08238C1F40E942E0881FD00
:10151000A8C089E30E94B0060E9440062FEF81EE2A
:1015200094E0215080409040E1F700C0000089E342
:101530000E948506CF910C9440068338A1F40E9446
:101540002E0880FD8EC083E50E94B0060E944006F2
:101550002FEF81EE94E0215080409040E1F700C0F1
:10156000000083E5E5CF8438A1F40E942E0882FDB7
:1015700078C087E40E94B0060E9440062FEF81EEFB
:1015800094E0215080409040E1F700C0000087E4E3
:10159000CFCF8CEF8C0F813A88F580911F01882383
:1015A00001F18091240687FF1CC0EC2FE695E6959B
:1015B000E695F0E0EA55FE4F828190E04C2F4770AF
:1015C00021E030E002C0220F331F4A95E2F7822368
:1015D0009323892B79F08C2F0E9485060E94400668
:1015E00009C0E8EAF1E08191C817A9F321E0EE3AD9
:1015F000F207C9F78C2F0E94B0069CCF80E28C0FB7
:10160000883068F4C77021E030E001C0220FCA952D
:10161000EAF780911406822B809314068BCFEBE5BA
:10162000EC0FE33040F4F0E0E55BFE4F808190E0AA
:10163000CF910C946C07E8E5EC0FE73150F4F0E043
:10164000EE0FFF1FE25BFE4F80819181CF910C94E2
:101650005607C03F30F08C2F0E94A105CF910C940B
:101660002406CF910895CF93C82F0E947E0AC933D4
:1016700049F42FEF87EE93E0215080409040E1F74E
:1016800000C000008C2FCF910C943A080F931F9349
:10169000CF93DF93C62FD42F022FFC0182818823A2
:1016A000A1F06093C8050E9418069093BD02809334
:1016B000BC02C77081E001C0880FCA95EAF7DF91CC
:1016C000CF911F910F910C944C071091C8051613E0
:1016D00035C08091BC029091BD020E940906883CF1
:1016E000910560F5C0E2CD0F1D17B9F080E2810FC2
:1016F000883040F4177081E001C0880F1A95EAF72E
:101700000E944107C83048F481E09D2F977001C0C6
:10171000880F9A95EAF70E944C07802F0E94330B9E
:10172000C83098F4D77081E001C0880FDA95EAF7E5
:10173000DF91CF911F910F910C944107C77081E009
:1017400001C0880FCA95EAF7F3CFDF91CF911F91BF
:101750000F9108958091530680FD0AC0ECECF1E0F2
:10176000118210821282339652E0E632F507C1F7F9
:10177000279A35B13F7725B120684FB7F8948CECA4
:1017800091E0FC015191CF0168E025B9000000C053
:1017900057FF35B9550F000000C000C000C035B973
:1017A00000C06A9591F7F2E086329F0751F74FBF6C
:1017B0008FE594E00197F1F700C000000895EF92E3
:1017C000FF921F93CF93DF93EC018CECE82E81E026
:1017D000F82E10E08C8197014091560660915506D5
:1017E000810F0E94B208185F83E0E80EF11C103FE1
:1017F00089F70E94AA0B9A818C8190FF08C08F5FA5
:101800008C83DF91CF911F91FF90EF9008958150CD
:10181000F7CFBF92CF92DF92EF92FF920F931F9379
:10182000CF93DF93FC018281DD24DA9480FD02C036
:10183000DD24D3940CEC11E0D0E0C0E02EE1B22E18
:10184000F80111821082128294E0E92EF12CC12C51
:101850008091C9018C0D8F310CF43DC06B2D0E941D
:101860001528892F082E000C990B8C179D0791F4D1
:10187000809156068E9DA0018F9D500D1124559587
:101880004795559547959801609155068091540666
:101890000E94B208CD0CF1E0EF1AF108C9F62196CA
:1018A0000D5F1F4FCE31D10559F60E94AA0B8091D2
:1018B000C90191E0D91215C0811111C08DE1809349
:1018C000C901DF91CF911F910F91FF90EF90DF90B1
:1018D000CF90BF90089587FFC5CF825EC3CF815060
:1018E000EECF90E00196BE010E943728E8CF0F931B
:1018F0001F93CF93DF93CCECD1E0FE0111821082D5
:101900001282339682E0E632F807C1F710E000E079
:101910008091CA01082E000C990B081719078CF149
:1019200080911001082E000C990B801791074CF143
:101930009E014091560660915506809154060E9482
:10194000B2080F5F1F4F23960E31110509F70E9451
:10195000AA0B80910F019091CA01980F9093CA0130
:1019600020911001280F20931001121614F49D31BC
:101970001CF0819580930F01DF91CF911F910F9102
:101980000895198218821A82DCCFEF92FF920F938A
:101990001F93CF93DF93EC018C819D810196817021
:1019A00099279D838C838CECE82E81E0F82E10E043
:1019B00005E5812F86952C813D81820F932F911D06
:1019C000817097014091560660915506809F802D49
:1019D00011240E94B2081F5F83E0E80EF11C1E3143
:1019E00041F7DF91CF911F910F91FF90EF900C94F1
:1019F000AA0BEF92FF920F931F93CF93DF938C016B
:101A0000CCECD1E0F12CE12CF801948160915506E9
:101A100080915406FFE0EF16F104FCF49923F9F0ED
:101A20009E01409156060E94B2082FEFE21AF20A78
:101A300023968EE1E816F10439F70E94AA0BF8010B
:101A4000848190E00196817099278483DF91CF9102
:101A50001F910F91FF90EF900895992309F39E0134
:101A600040E0E1CF9091530690FF0CC0ECECF1E028
:101A7000818360834283339692E0E632F907C1F7AF
:101A80000C94AA0B08950F931F93CF93DF9300D06C
:101A90000F92CDB7DEB78C018091CB0181110AC0C6
:101AA0009E012F5F3F4F48EC6FEF0E94B2088A8182
:101AB0008093CB01F8016481613069F08091CB01A2
:101AC00040E0662361F040E0623011F44091CB01C8
:101AD00080E060E004C06091CB0140E080E00E94C3
:101AE000320DF801848190E0019663E070E00E947D
:101AF000372884830F900F900F90DF91CF911F9123
:101B00000F910895CF93DF9300D00F92CDB7DEB73A
:101B10009091530690FF0AC09E012F5F3F4F0E9495
:101B2000B2084B8169818A810E94320D0F900F901B
:101B30000F90DF91CF910895CF93DF93EC01EC816B
:101B4000F0E0E554FD4F4491E3E5F6E062818181E8
:101B50000E94820D8C818F5F8C83DF91CF910895DD
:101B6000CF93DF93EC01E3E5F6E0438162818C8162
:101B70000E94820D8C818F5F8C83DF91CF910895BD
:101B80008F929F92AF92BF92CF92DF92EF92FF928D
:101B90000F931F93CF93DF936CE771E02DE1822EBB
:101BA00026E0922EC0E0EE24E394F12CDB018D912F
:101BB000BD01E82FE295EF70F0E091A18F708701F1
:101BC00001C0000F8A95EAF7892F802B81A392A18B
:101BD000D02FD0959D2392A3B0EABA95F1F792E861
:101BE000C92E91E0D92E50E040E020E0D6013D9191
:101BF0006D01A32EA2948FE0A822B12CD50190965E
:101C00008C9190E03F7002C0959587953A95E2F7E8
:101C100080FD4FC08E2D042E01C0880F0A94EAF774
:101C2000282B4F5F5F4F4430510501F781A18D2371
:101C300081A382A1082B02A3F40180812817D9F186
:101C4000208381E0C82BFFEF8F1A9F0A21E06238C2
:101C5000720709F0ABCFCC2381F181E08093C801FA
:101C60000E9418069093C7018093C6018091C60117
:101C70009091C7010E940906069718F180911D06F0
:101C80008093480680911E068093490680911F0626
:101C900080934A068091200680934B06809121060E
:101CA00080934C068091220680934D061092C801C5
:101CB00008C080E0B5CF80E0C5CF8091C801811118
:101CC000D5CF8091C705882371F08091C50590918B
:101CD000C6050E940906893E934028F082EE0E94C4
:101CE0003A081092C7058C2FDF91CF911F910F9169
:101CF000FF90EF90DF90CF90BF90AF909F908F902C
:101D00000895CF9384E090E00E94C128C82F81E21B
:101D100090E00E94C128982F8C2FCF9108950F93A7
:101D20001F93CF93DF9328E0629FE001112450E0DE
:101D3000440F551FC40FD51F30E3839FC00DD11D25
:101D40001124CE0186960E94C128082F10E0102F82
:101D50000027CE0187960E94C1289801282BC9012F
:101D6000DF91CF911F910F910895462F873038F45E
:101D7000763028F4643018F4672F0C948F0E90E0BE
:101D800080E00895CF93DF930E94B50EEC01823876
:101D90009105A9F1D8F58133910509F496C048F56C
:101DA0008932910509F48AC08A9709F495C0C11552
:101DB00021E5D20708F0BCC0C11530E5D30708F013
:101DC00014C1C83ED10508F09CC0C03ED10560F5E5
:101DD000C83AD10508F087C0C53AD10508F0FDC062
:101DE000C130D10509F12097F9F0C430D105E0F4F4
:101DF00040C08533910509F45AC0C997C1F6809156
:101E00002406837089F0C0EED0E00EC0833E9105B9
:101E100099F170F4803E910501F1823E910539F609
:101E20008091240682FD21C0CE01DF91CF910895DB
:101E3000863E910561F1873E910571F1843E9105E1
:101E400009F0B5CF8091250681FFEECF8091240661
:101E5000C7EED0E084FD0DC0E7CF8091240680FD61
:101E600012C19091250690FFDFCFC3EED0E084FF32
:101E7000DBCFD0E0C0E0D8CF8091240682FD06C140
:101E80009091250690FDBFCF84FFCECFF2CF8091F9
:101E9000240683FDDDCFC8CF8091240683FDF9C0E1
:101EA0009091250691FFF0CFC4EED0E0BDCF809198
:101EB000240685FFB9CFC9E2D0E0B6CF80912406D1
:101EC00085FFB2CFC5E3D0E0AFCF8091240686FF77
:101ED000ABCFCAE2D0E0A8CF8091240686FFA4CF82
:101EE000C1E3D0E0A1CFCF3BD10518F6C85AD0E06E
:101EF000CC0FDD1FC25BDE4F0990D881C02DD464AA
:101F000093CFC11540E2D40758F4C11581E0D8073A
:101F100008F08ACFC03FD10508F4ABCFD06584CF9D
:101F2000C11590E4D90708F4A4CFDF70D06A7CCF44
:101F3000C11525E5D20700F5C11534E5D30708F032
:101F40008AC0C11543E5D40708F071C0C11582E508
:101F5000D80708F467C0CE018370992721E030E0EC
:101F600002C0220F331F8A95E2F7C695C69580E21C
:101F7000C89FE001112452C0C11599E5D907A8F402
:101F8000C11528E5D20708F06BC0C11536E5D307A7
:101F900008F06FCF8C2F0E944B09C82FD0E0DC2FA8
:101FA000CC27CC27DF71D0623FCFC1154AE5D407DB
:101FB00008F45BC0CE0190568115904208F059CFCD
:101FC0008D2F8F710E944B0990E0982F88278827CA
:101FD0009F719C012C2BE901E6CFC55AD0E0C55B6F
:101FE000DE4FC881D0E0D0641FCFCE01E4E09695EB
:101FF0008795EA95E1F783702C2F26952695237017
:1020000040E2249F90011124382B8C2F8370C1E073
:10201000D0E002C0CC0FDD1F8A95E2F7C22BD32B94
:10202000DC6802CFDC2FCC27C16FD06AFDCECE0199
:102030008370992721E030E002C0220F331F8A9578
:10204000E2F7C695C69590E2C99FE0011124C22B24
:10205000D32BDA68E9CEDC2FCC27C46FD06AE4CE6C
:10206000DC2FCC27C06FD06ADFCE8C2F8F700E9400
:102070004B0934E0D695C7953A95E1F7CF709C2F80
:10208000EC01D069D1CEC9E3D0E0CECEC2EED0E033
:10209000CBCEC6EED0E0C8CEBF92CF92DF92EF9209
:1020A000FF920F931F93CF93DF938C01C09086060E
:1020B000D0908706E0908806F090890680911606F9
:1020C00090911706A0911806B0911906C82AD92A2E
:1020D000EA2AFB2ACFE1D0E0BC2ED701C6010C2EA4
:1020E00004C0B695A795979587950A94D2F780FD79
:1020F0000EC0219788F7B12C8B2DDF91CF911F91C6
:102100000F91FF90EF90DF90CF90BF900895B801AE
:102110008C2F0E94C20E019761F3EECFCF93DF9315
:10212000EC010E944C10BE01DF91CF910C94C20EC5
:102130000E948E10292F2F7092959F7092509E3082
:1021400078F4E92FF0E0E259F64D0C944B28803FEB
:1021500019F020F4883E20F481E00895843FE1F3F3
:1021600080E00895883EC0F3813FD1F7F5CF822FFC
:1021700086958695869508956F927F928F929F920D
:10218000AF92BF92CF92DF92EF92FF920F931F9385
:10219000CF93DF938BEBC82E83E0D82E0EE510E0B3
:1021A000E801E09736011CC0F50185909490692DF7
:1021B000C7010E94D528682DC70101960E94D52825
:1021C00082E0A80EB11C82E0E80EF11CCE15DF05FE
:1021D00059F788E0680E711C28960C171D0731F01E
:1021E0007E0188E0E81AF1085301DECF005D1F4F41
:1021F00080E3C80ED11C0E3A81E0180789F6DF9102
:10220000CF911F910F91FF90EF90DF90CF90BF90F3
:10221000AF909F908F907F906F900895CF93DF93B2
:10222000C6E7D1E060E0CE010E94D5282196C11515
:1022300088E0D807B9F7DF91CF910895CF93C82FE1
:102240006FEF811162E282E290E00E94D5286FEF89
:10225000C11165E083E290E00E94D5286FEFC111C3
:1022600060E384E290E0CF910C94D5288F929F9206
:10227000AF92BF92CF92DF92EF92FF920F931F9394
:10228000CF93DF93FC01B280948081E08483C6E227
:10229000D2E00CEC11E08BE4A82E88248394EE2489
:1022A000EA94F12C2BE4C22ED12C91101DC01B827C
:1022B0001A8298014A81698188810E94B208259614
:1022C0000D5F1F4F82E0CC3BD80779F7DF91CF91AC
:1022D0001F910F91FF90EF90DF90CF90BF90AF9044
:1022E0009F908F900C94AA0B2B81222309F12150EF
:1022F0002B833C818A2D821B311101C0822F90914A
:102300005606899FC0011124B6010E9423286A83C2
:10231000211104C0332311F01C82AB8222E02B1563
:1023200040F2809154068883809155068983C1CFFD
:102330000E94A428823091400CF0BBCF82E08B1524
:10234000C0F40E94A428B7010E943728888322E0A5
:102350002B1590F40E94A428209155062695622FF3
:1023600070E00E943728280F29831A82AB828C8262
:10237000A0CF80915406EACF20915506F5CF6CEEA0
:102380007EEF90E080E00E94F32860E082E090E041
:102390000E94D52860E083E090E00E94D52810924A
:1023A000160610921706109218061092190660E091
:1023B00084E090E00E94D52860E081E290E00E94F5
:1023C000D52860E085E090E00E94D52860E086E0B6
:1023D00090E00E94D5286FEF87E090E00E94D5281A
:1023E00040E050E0BA0188E090E00E94E72860E019
:1023F0008DE090E00E94D52840E050E0BA0188E1ED
:1024000090E00E94E72860E087E190E00E94D528F4
:1024100040E050E0BA018CE190E00E94E72860E0E3
:1024200080E290E00E94D52840E050E0BA018FE0C1
:1024300090E00E94E72840E050E0BA0183E190E09C
:102440000C94E728CF92DF92EF92FF926B017C0110
:102450000E949C08B701A60188E090E0FF90EF90F1
:10246000DF90CF900C94E72880915706833018F4C2
:102470008F5F809357066091530670915406809148
:102480005506909156060C94221280915706882387
:1024900019F081508093570660915306709154064D
:1024A00080915506909156060C9422125F926F927D
:1024B0007F928F929F92AF92BF92CF92DF92EF92D4
:1024C000FF920F931F93CF93DF9300D00F92CDB75E
:1024D000DEB7182F762E042F622E9091530690FFB0
:1024E00029C0E92FE695AE2FB0E0A05EBE4F8C91DB
:1024F000809346069E7F923081F59E012F5F3F4F6D
:10250000812F0E94B2084B8169818A810E94320D1D
:10251000109354067092550600935606662051F0AB
:10252000609153067091540680915506909156061D
:102530000E9422120F900F900F90DF91CF911F9168
:102540000F91FF90EF90DF90CF90BF90AF909F9052
:102550008F907F906F905F900895823019F4009172
:102560005606D6CF863019F410915406D1CF893053
:10257000D9F3893169F6E9518E2F8170582EE6958D
:10258000F0E0EA54FD4FA590B490BB248CECE82E0B
:1025900081E0F82ED12CC12C9EE1892E912CC60110
:1025A000B4010E942328812F511013C0860F970178
:1025B000402F672D0E94B208CA0CDB1C83E0E80E96
:1025C000F11C86E2E81682E0F80649F70E94AA0BA1
:1025D0009FCF861BECCFE3E5F6E0438128E0421B6A
:1025E00008F440E021E0628181810C945612E3E519
:1025F000F6E0438128E0420F08F44FEF21E06281CA
:1026000081810C945612E3E5F6E0628128E0621BBA
:1026100008F460E021E0438181810C945612E3E5E7
:10262000F6E0628128E0620F08F46FEF21E0438159
:1026300081810C945612E3E5F6E0818121E043812B
:10264000628188500C945612E3E5F6E0818121E026
:1026500043816281885F0C945612E3E5F6E083E0E3
:10266000808311828FEF828388EC83831482608160
:102670007181828193810C942212109214068091B0
:102680001F01E8EAF1E0882359F08091240687FFD2
:1026900007C08EE1DF011D928A95E9F70C9482074D
:1026A00086E0F8CF1F93CF93DF93CDB7DEB7AA971D
:1026B0000FB6F894DEBF0FBECDBF8DE796E0209138
:1026C000F100DC012D93CD01B6E085389B07B9F709
:1026D00080917E06833009F471C0B8F4813009F42A
:1026E00048C0823009F4B2C08091E80083FF3AC14B
:1026F00080917D0690917E069A3008F033C1E92FD3
:10270000F0E0E458F64D0C944B288A3009F48DC063
:102710008B3009F470C0893039F780917D068132A1
:1027200019F78091810690918206009711F0029727
:10273000D9F68091E800877F8093E8008091E800D7
:1027400082FF37C08091F2009091F300029729F444
:102750008091F1008B7F813021F48091F100809392
:1027600059068091E8008B778093E8000E94C403AB
:10277000BBCF80917D06813A09F0B6CF8091E80009
:10278000877F8093E8008091810690918206892B53
:1027900061F460E28AE596E070E00E94770480913F
:1027A000E8008B778093E8009FCF60E090E080E0C6
:1027B000F3CF809185068111C1CF96CF80917D06A0
:1027C000813A09F091CF8091810690918206892B00
:1027D00009F08ACF8091E800877F8093E80080919C
:1027E000E80080FFFCCF80911F018093F100809171
:1027F000E8008E77B9CF80917D06813209F074CFE1
:102800008091810690918206892B09F06DCF80918D
:10281000E800877F8093E8000E94C40380917F06D0
:1028200080931F010E943D135FCF80917D0681320E
:1028300009F05ACF8091E800877F8093E8000E94DA
:10284000C40380918006809358064ECF80917D0608
:10285000813A09F049CF8091E800877F8093E800B2
:102860008091E80080FFFCCF80915806BECF803871
:1028700099F0823809F076C0809181068F70873098
:1028800008F070C08093E9008091EB0085FB8827F9
:1028900080F91092E90006C080917A0690917B063B
:1028A000911182609091E800977F9093E800809367
:1028B000F1001092F1008091E8008E77C0C188236A
:1028C00009F4ADC1823009F04DC080917F068111BD
:1028D000B1C1809181068F702FEF280F263008F04C
:1028E00041C08093E9002091EB0020FFA3C1933009
:1028F00031F48091EB0080628093EB009BC190915A
:10290000EB0090619093EB0021E030E001C0220FDA
:102910008A95EAF72093EA001092EA008091EB0092
:102920008860EACF81111EC010917F061F778091C9
:10293000E3008078812B8093E3008091E800877F1B
:102940008093E8000E94C4038091E80080FFFCCFE0
:102950008091E30080688093E30082E0111183E0BE
:10296000809385068091E80083FF0AC08091E8008B
:10297000877F8093E8008091EB0080628093EB007A
:10298000AA960FB6F894DEBF0FBECDBFDF91CF91F0
:102990001F9108958058823028F720917F0630914A
:1029A00080062C3DE3E03E07A1F583E08A838AE2BE
:1029B00089834FB7F894DE01139620E03EE051E2A0
:1029C000E32FF0E050935700E49120FF03C0E2951D
:1029D000EF703F5FEF708E2F90E0EA30C0F0C79647
:1029E0008D939D932F5F243159F74FBF8091E8005D
:1029F000877F8093E8006AE270E0CE0101960E9432
:102A000077048091E8008B778093E800ABCFC09685
:102A1000E7CF8091810690918206432F552743305E
:102A2000510509F44AC078F54130510509F485C0D3
:102A30008BE590E0E0E1F5E04230510509F092CFFE
:102A40002091E800277F2093E800209183063091B1
:102A500084068217930708F49C0140E02115310594
:102A600009F070C041116EC08091E80082FDC9CFAD
:102A700080918506882329F2853019F28091E8003B
:102A800083FFF2CFBECF4132510509F447C0423235
:102A9000510509F067CF8330910508F063CFFC0141
:102AA000EE0FFF1FE756FE4F0190F081E02D8A5692
:102AB0009E4FDC018C9190E01DC033272130310501
:102AC000E9F02115310579F022303105F9F0233094
:102AD000310509F047CFEDE7F5E0E4918E2F90E066
:102AE000EDE7F5E007C0EDEAF5E0E4918E2F90E028
:102AF000EDEAF5E0009709F435CFA2CFE9E9F5E07A
:102B0000E4918E2F90E0E9E9F5E0F4CFE3E8F5E019
:102B1000E4918E2F90E0E3E8F5E0ECCF833091056F
:102B200008F020CF880F991FFC01E156FE4F01905D
:102B3000F081E02D89E090E083CF82E190E0EBE648
:102B4000F5E07ECF80918506882309F45ACF853041
:102B500009F457CF8091E80083FD53CF8091E800BE
:102B600082FD82CF8091E80080FF78CF8091F200D3
:102B70009091F3002115310519F08830910550F03E
:102B800041E0089709F040E08091E8008E7780935B
:102B9000E80064CF44914093F1003196215031090F
:102BA0000196E8CF803809F0DDCE8091E800877F7C
:102BB0008093E80080917C068093F1007CCE8111A7
:102BC000D1CE10917F06123008F0CCCE8091E80073
:102BD000877F8093E80010937C060E94C403112332
:102BE00011F084E005C08091E30087FDFACF81E019
:102BF0008093850642E061EC81E00E94E30342E2BB
:102C000061EC84E00E94E30342E261EC82E00E9416
:102C1000E30342E260EC83E00E94E303A3CE8091F1
:102C20007F06813009F09ECE81E0933009F080E08C
:102C300080937B061092E9008091E800877F809363
:102C4000E8000E94C4038ECE60915306669570E042
:102C50004BE050E084E091E00E94B428892B19F405
:102C600081E0809347060E9418069093290680937E
:102C7000280608959091530690FF36C091708111F7
:102C800029C0926090935306662351F060915306D9
:102C90007091540680915506909156060E9422121A
:102CA00060915306669570E04BE050E084E091E05F
:102CB0000E94B428892BA9F01092470681E08093E6
:102CC0002B0620E0409156066091550680915406EF
:102CD0000C9456128B3210F09465D4CF880F982B39
:102CE000D1CF0E942416EACF08958091530686958D
:102CF000815009F48AE261E00C943A1680915306FF
:102D000086958F5F8B3208F081E061E00C943A1673
:102D10009091530690FF07C09695981720F096174C
:102D200010F40C947E1661E00C943A164F925F9268
:102D30006F927F928F929F92AF92BF92CF92DF92CB
:102D4000EF92FF920F931F93CF93DF9300D000D0A9
:102D50000F92CDB7DEB77C01FC0183819481892B72
:102D600031F08081918189238F3F09F02AC70F902C
:102D70000F900F900F900F90DF91CF911F910F91B7
:102D8000FF90EF90DF90CF90BF90AF909F908F908B
:102D90007F906F905F904F9008950E944C10182F75
:102DA000682F89819A810E940B0769817A81812F1E
:102DB0000E94B50E8C018091C405F70192818111AA
:102DC000E6C091110CC00430FDE51F0709F4ADC049
:102DD00008F056C003303DE5130709F477C0F7014A
:102DE0008281882309F4E2C6980122513F452031AF
:102DF000310508F0ADC68FEF97E00E94C12802515F
:102E000056E7852E9924939481116DC0011147C115
:102E10001C821B82662463944AE0542E84010F5F57
:102E20001F4FC4010E94C12889831A82882309F494
:102E30005AC09FEF980F933008F040C18A8369828F
:102E400032E0830E911CC8010E94C1288B83882325
:102E500009F449C08E010F5F1F4FF8012081222322
:102E6000E9F2213009F063C191818281913009F04A
:102E700027C10E5F1F4F0E94330B0F5F1F4FEDCF17
:102E800006308DE5180709F45CC007309DE5190789
:102E900009F0A5CFC0901101D09012018090860654
:102EA00090908706A0908806B09089060E943D13F6
:102EB0000E941F080CEB15E0C016D10609F456C09D
:102EC000C8010E94961606501109F6CF0E943D13C4
:102ED0000E941F0882EC92E09093C3058093C20584
:102EE00081E08093C40580911106877009F43FCF7B
:102EF000F7018281882309F43ACF82E00F900F9086
:102F00000F900F900F90DF91CF911F910F91FF9035
:102F1000EF90DF90CF90BF90AF909F908F907F9079
:102F20006F905F904F900C94E6070E943D130E94B3
:102F30001F088CEB95E09093C3058093C20582E057
:102F4000D0CFC0901301D09014018090860690904D
:102F50008706A0908806B09089060E943D130E94C3
:102F60001F0802EC12E0C016D10659F40E943D136E
:102F70008092860690928706A0928806B092890673
:102F8000B2CFC8010E9496160A5F1F4FECCF98017E
:102F900023503D4523303105B8F521E005301D456E
:102FA00009F420E0291709F49ECF813029F08230FE
:102FB000B9F01092C40597CF8091C2059091C305D6
:102FC000F2E0823C9F0729F0FC0136972281211113
:102FD00005C09093140180931301EBCFCF01F0CF84
:102FE0008091C2059091C30525E08C3B920729F0A2
:102FF000FC0136962281211105C090931201809325
:103000001101D7CFCF01F0CF813021F1823009F00B
:10301000E6CE2091130130911401A091C205B09128
:10302000C305911105C095E0AC3BB90709F4D7CEB3
:10303000CD0106962817390709F4D1CE86E0F701AD
:1030400001900D928A95E1F78091C2059091C30598
:10305000069720C02091110130911201A091C20564
:10306000B091C305911105C082E0A23CB80709F4F4
:10307000B6CECD0106972817390709F4B0CE86E001
:10308000F70101900D928A95E1F78091C205909128
:10309000C30506969093C3058093C205A0CE811404
:1030A000F8E09F0609F41FCFC4010E94C1288111D6
:1030B00001C001502FEF821A920AA8CE4801CACE51
:1030C000923029F40E5F1F4F0E947E0AD6CE9330B5
:1030D00029F40E5F1F4F0E943A08CFCE943019F0AA
:1030E0000F5F1F4FCACE0E5F1F4F30E020E0B801C8
:1030F0006F5F7F4FF80141818053990B8A309105B2
:1031000058F02150310908F4B8CE8FE99FE00197BB
:10311000F1F700C00000F5CF529EF001539EF00D74
:1031200011249C012E0F3F1F842F8B01E0CFE22F33
:10313000F0E0E55CFB4F7490822F8695869586952E
:1031400090E0FC01E55DFB4FA4902770B12C022EAE
:1031500002C0B594A7940A94E2F7E1E0AE22BB2442
:10316000FC01E55EFB4FC490D12C02C0D594C794FE
:103170002A95E2F7F1E0CF22DD24A114B10419F081
:1031800081EE0E947E0AC114D10419F086EE0E94DD
:103190007E0A872D0E94330BCD2819F086EE0E94FF
:1031A0003A08AB2809F469CE81EE95CF81E00E9400
:1031B000FE0703C081E00E94C3070E94A70793CEC9
:1031C00082E0F5CF882309F477C08091C70581118B
:1031D00006C081E08093C70582EE0E947E0A0E94AD
:1031E00018069093C6058093C5058BE20E947E0A5F
:1031F000F7019281992309F4F5C41092C8050230B1
:10320000FCE51F0708F45EC106312CE5120738F013
:1032100098012A5F3C452930310508F053C10E94CE
:10322000810E909325068093240600313CE5130718
:1032300009F417C108F0A5C008309CE5190709F486
:1032400006C108F074C00430FCE51F0709F4F7C09C
:1032500008F05AC002303CE5130709F4E6C0033019
:103260001C4509F4E8C0609124061091250684E00D
:1032700090E00E94D528612F81E290E00E94D5283D
:103280000E943D1330CE8823A1F08091C7058111A3
:1032900006C081E08093C70582EE0E947E0A0E94EC
:1032A00018069093C6058093C50581EE0E947E0A9C
:1032B0009CCF81EE0E943A088BE20E943A0898CF98
:1032C000053F3CE51307C9F0A0F027E245EE66EEA6
:1032D000063F9CE5190709F08BCFC7010E94460BFA
:1032E00002CE27E245EE65EEF8CF26E241EE60EE33
:1032F000F4CF27E245EE64EEF0CF26E241EE62EE37
:10330000ECCF28E241E0EFCF8091240680610630C7
:103310009CE5190709F48CC0809124068860073069
:103320001C4508F485C080912406806281C080918C
:1033300024068D7F0C30FCE51F0709F479C070F47A
:10334000809124068C600A303CE5130709F470C0B4
:1033500008F481C0809124068E7F6AC08091240683
:10336000877F0E309CE5190709F462C0809124061E
:103370008B7F0F301C4508F45BC0809124068F7E44
:1033800057C00B3FFCE51F0709F45DC030F5033162
:103390003CE5130709F46DC078F401319CE5190789
:1033A00009F463C002311C4509F05DCF0E943D1352
:1033B000809124068F773CC00531FCE51F0709F496
:1033C00060C008F474C08091250681600A3F1C45E6
:1033D00009F049CF8093250646CF0F3F8CE51807AB
:1033E00009F44BC088F4809125068D7F0D3FECE5F4
:1033F0001E0781F3809125068E7F0E3F1C4550F3FA
:10340000809125068360E6CF01302DE5120709F48F
:1034100057C008F442C060E002301D4509F023CFD8
:103420008EE090E00E94D5281ECF80912406816016
:103430008093240618CF809124068260F9CF809172
:1034400024068460F5CF809125068260C3CF8091E9
:1034500024068064EDCF0E943D138091240680688D
:10346000E7CF809124068F7DE3CF809124068F7B68
:10347000DFCF80912406837FDBCF809125068C7F70
:10348000A9CF8091240682FB992790F921E0922709
:1034900090FB82F990FB83F9CBCF80912506982F82
:1034A000909591708E7F892B90FB81F993CF0E942C
:1034B0003D1390912406892F97FB87F98058B8CF48
:1034C00061E0AECF809114060631ECE51E0709F0ED
:1034D00095C38A7A91E009F490E09093C90581112F
:1034E00006C089E20E94B0060E944006FCCC85E33B
:1034F000F9CF85E380C38091530680FF1BC08E7F88
:10350000809353066091530670915406809155063E
:10351000909156060E94221210924706FFEF20E774
:1035200032E0F15020403040E1F700C000000E943E
:10353000AA0BD9CC81608093530661E086950E94E6
:103540003A16D1CC45E756E16EE776E10E9497083E
:10355000CACC4EE756E165E776E1F8CF4BE153E19F
:1035600064E273E1F3CF44E253E16BE173E1EECF48
:1035700043E053E16FE073E1E9CF4FE053E163E0F3
:1035800073E1E4CF4BEE52E167EF72E1DFCF47EF3B
:1035900052E16BEE72E1DACF45E452E164E372E1AD
:1035A000D5CF44E352E165E472E1D0CF61E081E040
:1035B000C6CF65E082E00E94881695CC68E086E080
:1035C000FACF6EE089E0F7CF64E18FE0F4CF67E1F6
:1035D00085E1F1CF61E088E1B2CF62E289E1EBCF32
:1035E00061E083E2ACCF01158CE5180709F447C010
:1035F0000E3D1C4509F450C0F7010081118199234B
:1036000009F44DC0C8010E944C10D82E682FC80183
:103610000E940B07B8018D2D0E94C20E8C01882ECE
:10362000F701A580A2943FE0A322D280D11010928E
:10363000130680911106877099F0DD2089F0812FA3
:10364000807F803421F080E2800F883048F082E073
:103650000E94E607809111068770CC24C3948111E3
:10366000C12CB12EB2942FE0B222FBE0FB1508F47E
:1036700050C0EB2DF0E0EA57F64D0C944B280E9419
:103680003D13FFEF24E33CE0F15020403040E1F7F0
:1036900000C000000E945A0A0E94BF1124CCC80139
:1036A0000E94E406D82EB6CF212F2F70A22E107FB5
:1036B00019F0A29490EFA922DD20C9F0AA2069F0A8
:1036C00080E2800F883010F081100BC080911406CA
:1036D000A82AA09214060E944006802F0E947E0A0B
:1036E00018C080911306A82AA0921306F4CF802F49
:1036F0000E943A08AA2069F0A094005E083010F0F9
:1037000081103DC080911406A822A09214060E9448
:103710004006EB2DE850FF0B349720F40E942E0852
:103720000E948E09CC2009F422CB8091110680FDE5
:103730001ECBF70112828595859585950E94FE071F
:10374000C7010E94961680911106859585958595ED
:103750000F900F900F900F900F90DF91CF911F91CE
:103760000F91FF90EF90DF90CF90BF90AF909F9020
:103770008F907F906F905F904F900C94C3078091D3
:103780001306A822A0921306C2CF312F3F70932EAA
:10379000107F103219F0929480EF9822882071F0F7
:1037A00081E0881661F1DD20B9F1AA2071F1F701FD
:1037B000858180FF92CF8F70858327C0DD2091F0B7
:1037C00090911506892D892BA11003C00E944C07EA
:1037D000A0CFE1E0AE12FACF981709F49ACF809308
:1037E000150697CFA11006C00E943A06892D0E94A7
:1037F00041078FCFF1E0AF1609F48BCFF5CFDD2075
:1038000031F025E02A1508F484CF892DDFCF34E08C
:103810003A1508F47ECFEACFAA2041F3F9E38F12DC
:1038200090C12FEF37EE83E0215030408040E1F728
:1038300000C0000086C1812F86958695837061F057
:10384000813009F066CFC8019370D11002C090E0BA
:1038500080E00E9456075DCFC8019370D11002C06E
:1038600090E080E00E946C0754CF802FDD2029F08B
:103870000E94A1050E9424064CCF0E94E004FACFCA
:10388000812F837009F066C0D11043CF802F8295BD
:1038900086958770880F880F602F6F70462E512C89
:1038A000712C612C082E04C0440C551C661C771C1E
:1038B0000A94D2F740E050E0BA0104FF0FC04FE095
:1038C00050E060E070E004C0440F551F661F771F92
:1038D0008A95D2F74095509560957095812F869581
:1038E00086958370823019F1D8F4009116061091F4
:1038F00017062091180630911906813069F0442985
:10390000552966297729CB01BA01602371238223C7
:1039100093230E942408FDCE402A512A622A732A4A
:10392000CB01BA016429752986299729F2CF442948
:1039300055296629772900911606109117062091BE
:10394000180630911906CB01BA016027712782272A
:103950009327DFCF8695DD2011F0812F817088239A
:1039600009F4D7CE802F829586958770880F880FAF
:10397000602F6F70462E512C712C612C082E04C0C4
:10398000440C551C661C771C0A94D2F740E050E0AA
:10399000BA0104FF0FC04FE050E060E070E004C0E7
:1039A000440F551F661F771F8A95D2F74095509593
:1039B00060957095812F869586958370823019F178
:1039C000D8F40091860610918706209188063091E0
:1039D0008906813069F04429552966297729CB0168
:1039E000BA0160237123822393230E949D0791CE05
:1039F000402A512A622A732ACB01BA016429752907
:103A000086299729F2CF44295529662977290091DB
:103A10008606109187062091880630918906CB0191
:103A2000BA016027712782279327DFCF1F70DD201F
:103A300029F0812F0E94FE07802FC8CE802F0E9480
:103A40004107812F0E94C30764CE802F92EF891611
:103A500009F450C0981578F0E0EF8E1619F1F1EFE7
:103A60008F1609F43FC0DD2009F466C0A11035CEE1
:103A7000812F8F713CC023EF821609F440C034EFD0
:103A80008312F1CFDD2009F44CC01F71812F0E94F9
:103A9000FE07E8E01E9FC001112483608093110699
:103AA000812F25C0DD20C9F084E08A1508F431CECD
:103AB0001F7161E070E080E090E004C0660F771F46
:103AC000881F991F1A95D2F70091860610918706D4
:103AD0002091880630918906A4CF95E09A1508F4C4
:103AE00018CEE6CF812F8F71DD2009F4ABCF0E9475
:103AF000FE070FCE812F8F71DD20C9F3A3CFDD200C
:103B000069F01F7161E070E080E090E004C0660F32
:103B1000771F881F991F1A95D2F767CF0E941F0839
:103B2000F8CD81E00E94E607F1E0FA1508F0F1CD4A
:103B300082E00E94E607EDCDAA2039F0893309F42E
:103B400070CE802F0E943A08E4CD812F8F717ACFFA
:103B50000031FFE51F0709F429CB01312FE51207DA
:103B600009F42ECB00382FE5120709F42BCB0138CE
:103B70003FE5130709F487CB033F8CE5180709F4E9
:103B8000B4CB08F09DCB083DECE51E0709F4A9CBAA
:103B9000093DFCE51F0709F4B4CB073D2CE51207EE
:103BA00009F026CB26E241EE61EE97CB00313FE5EE
:103BB000130709F4FFCA01319FE5190799F682E05E
:103BC000FACA85E0DE01119601900D928A95E1F71F
:103BD000F701228189819A812111DFC80E94E406C0
:103BE000182FE3C806311C4509F006CD8091C905A0
:103BF00081117FCC89E20E94850676CC8272F80121
:103C0000E25CFC45E431F10508F0EDCCEE56F64DF2
:103C10000C944B281F93CF93DF938091CF05807F27
:103C2000A9F48091CC05882389F080910106D09178
:103C3000D0056091CA057091CB05A091CD05B091DA
:103C4000CE05C62FC72316E0D81304C0DF91CF914D
:103C50001F91089590E0109711F0CF3F19F401964D
:103C60008770F2CF189F9001199F300D1124F90130
:103C7000EF52FA4F41814713F2CF40814613EFCF05
:103C800042814111ECCF438154814A1B5B0B483C7C
:103C9000510528F78091CF058F7080618093CF0503
:103CA000F901EA52FA4F80818F70806180838AEC3B
:103CB00095E00E949616DF91CF911F910C943707E3
:103CC000AF92BF92CF92DF92EF92FF920F931F932A
:103CD000CF93DF93CDB7DEB761970FB6F894DEBF11
:103CE0000FBECDBF8C0185E0F801DE011D9601906D
:103CF0000D928A95E1F7F80180819181E2802AECAA
:103D0000A22E25E0B22E6091CD057091CE056115F1
:103D1000710509F43EC13091CA054091CB05232FAE
:103D200024232F3F09F435C1C380D480F090CC0503
:103D3000F601E61BF70BFF2009F4FBC02091CF052D
:103D4000522F507FE83CF10508F0BBC0511178C0FC
:103D5000FE2C491321C038131FC0E1101DC02F7065
:103D600020612093CF05C5010E9496168091CF0552
:103D7000F80185838F2D61960FB6F894DEBF0FBED4
:103D8000CDBFDF91CF911F910F91FF90EF90DF900A
:103D9000CF90BF90AF900895CD2829F0282F2923E8
:103DA0002F3F09F014C120E0F22FF170DF2E20FF29
:103DB0003DC0209101064091D00556E0241315C066
:103DC0008D879E878D859E850E948E10292F229536
:103DD0002F702230F8F0243020F59F70F9F0F801B0
:103DE0009581907FD9F4D12C1FC030E0529FF00113
:103DF000539FF00D1124EF52FA4F6181961306C0C4
:103E00006081861303C06281E61210C02F5F3F4FAE
:103E10002770D4CF9F7011F0882329F3805E8830FB
:103E200010F3C8010E949616FD2CA4CFEE2009F4D1
:103E3000A1CF8091CF0581608093CF05F12C9ACFDF
:103E4000491312C0381310C0E1100EC0F8012583C9
:103E5000C8010E94961686E0F801AAECB5E0019030
:103E60000D928A95E1F786CF8D879E878D859E85F9
:103E70000E949810882309F1EE20F9F08091CF0577
:103E8000803270F02091CA053091CB0538872F839E
:103E90001986DB86CA868C87CE0107960E94961605
:103EA00086E0F801AAECB5E001900D928A95E1F761
:103EB0000E940A1EFF24F3945DCFC8010E9496164B
:103EC000F9CF51110AC08AEC95E00E94961686E05F
:103ED000F50111928A95E9F7B1CF49130FC0381354
:103EE0000DC0E1100BC0F8012583C8010E94961691
:103EF00086E0F50111928A95E9F73CCF8D879E8780
:103F00008D859E850E9498108823B9F2EE20A9F233
:103F10008091CF05803220F22091CA053091CB05E7
:103F20003A8329831B82DD82CC828E83CE01019667
:103F3000B5CFE83CF105E0F6FE2CEE2009F4BDCF4C
:103F4000491316C0381314C08091CF0580FD83CF6C
:103F5000982F907F09F47FCFF8018583903F09F473
:103F600077CF982F907F905F8F70892B858370CF4C
:103F70008D879E878D859E850E949810811190CF98
:103F80008091CF0581608093CF05C8010E9496166D
:103F9000F1CEEE2009F491CF8D879E878D859E8589
:103FA0000E949810F82E882309F487CF86E0F80144
:103FB000AAECB5E001900D928A95E1F78091CA05CF
:103FC0009091CB050E948E100E940A1ED3CE21E054
:103FD0002E25EACE1F93CF93DF93CDB7DEB7679739
:103FE0000FB6F894DEBF0FBECDBF4B8B5C8B6D8BD5
:103FF0007E8B8F8B1A8A198A85E0FE017396DE010B
:104000001D9601900D928A95E1F786E0FE013D969E
:10401000DE01179601900D928A95E1F7CE01079681
:104020000E94601E882389F016E08091010690911D
:10403000D005891349C067960FB6F894DEBF0FBE4E
:10404000CDBFDF91CF911F91089586E0FE01379695
:10405000DE01119601900D928A95E1F78A859B8584
:10406000892B11F38F81988589238F3FE9F2209165
:10407000D00530E0C901019687709927409101066B
:104080004817190671F40E943D131092D005109242
:10409000010686E0EAECF5E0DF011D928A95E9F77A
:1040A000C3CF96E0929FD001939FB00D1124AF52E1
:1040B000BA4FFE01319601900D929A95E1F78093E7
:1040C000D0050E943707B0CF819FC00111248F52C5
:1040D0009A4F0E94601E882309F4ADCF809101069B
:1040E00090E0019687709927809301069ECF1F92DA
:1040F0000F920FB60F9211242F933F934F935F931C
:104100006F937F938F939F93AF93BF93CF93DF93DF
:10411000EF93FF93D091E900DF708091EC00C82FFE
:10412000C17080FDC0E81092E9008091F000877FA7
:104130008093F00078940E9452131092E9008091CD
:10414000F00088608093F000CD2BCF70C093E90021
:10415000FF91EF91DF91CF91BF91AF919F918F919F
:104160007F916F915F914F913F912F910F900FBE73
:104170000F901F9018951F920F920FB60F92112457
:104180002F933F934F935F936F937F938F939F935F
:10419000AF93BF93EF93FF938091E10082FF09C03B
:1041A0008091E20082FF05C08091E1008B7F8093C7
:1041B000E1008091DA0080FF24C08091D80080FF68
:1041C00020C08091DA008E7F8093DA008091D90040
:1041D00080FFB1C088E189BD8AE189BD09B400FED4
:1041E000FDCF81E08093850680915206811109C040
:1041F0000E9422030E9415048091E2008460809353
:10420000E2008091E10080FF1CC08091E20080FF0D
:1042100018C08091E2008E7F8093E2008091E200DE
:1042200080618093E2008091D80080628093D80002
:1042300019BC85E08093850680916F008260809331
:104240006F008091E10084FF3AC08091E20084FF1A
:1042500036C088E189BD8AE189BD89B5982F917002
:1042600080FFFBCF8091D8008F7D8093D800809114
:10427000E1008F7E8093E1008091E2008F7E809349
:10428000E2008091E20081608093E20080917C06F0
:10429000882309F456C084E0809385060E943D136C
:1042A0000E942E080E948E090E94241680916F00A1
:1042B0008D7F80936F000E942E080E948E0980914E
:1042C000E10083FF27C08091E20083FF23C080913B
:1042D000E100877F8093E10082E080938506109261
:1042E0007C068091E1008E7F8093E1008091E20066
:1042F0008E7F8093E2008091E20080618093E200F3
:1043000042E060E080E00E94E3038091F00088607A
:104310008093F000FF91EF91BF91AF919F918F91AA
:104320007F916F915F914F913F912F910F900FBEB1
:104330000F901F90189519BC109285061092520686
:1043400060CF8091E30087FD93E090938506A6CF30
:10435000CDB7DEB7EE970FB6F894DEBF0FBECDBF78
:1043600084B7877F84BF0FB6F894A89580916000CA
:10437000886180936000109260000FBE80E890E03A
:104380000FB6F89480936100909361000FBE85B7DB
:10439000806885BF85B7806885BF0E9422030E9420
:1043A00015048091E20084608093E200789480910B
:1043B00085068823A1F01091E9001F709091EC0010
:1043C000892F817090FD80E8182B1092E900809170
:1043D000E80083FD0E9452131F701093E90082E0F1
:1043E00084BD93E095BD9AEF97BD80936E00ACE7D6
:1043F000B1E022E831E041E050E08D91E82FE29514
:10440000EF70F0E011A18F70BA0101C0660F8A95BC
:10441000EAF7962F9095912391A382A1862B82A3F0
:104420002A173B0751F7A2E8B1E026E831E041E066
:1044300050E08D91E82FE295EF70F0E011A18F70C0
:10444000BA0101C0660F8A95EAF7962F90959123DD
:1044500091A382A1862B82A32A173B0751F7EDE196
:10446000F6E083E296E0A8E4B6E011921D928E1782
:104470009F07D9F70E94C00D8FE39CE90197F1F7E0
:1044800000C000000E94C00D8091480680FF0BC054
:1044900080E00E941E116FEF7FEF90E080E00E94AD
:1044A000F3280E945A0A90E080E00E94CF288C3EB8
:1044B0009E4F11F00E94BF1182E290E00E94C1283D
:1044C000823209F022C583E290E00E94C128853043
:1044D00009F01BC584E290E00E94C128803309F0F6
:1044E00014C590E080E00E94CF288C3E9E4F11F0D2
:1044F0000E94BF1182E090E00E94C12880933F0695
:104500000E94810E909325068093240683E090E01C
:104510000E94C128682F70E090E080E00E9424088B
:1045200080912306811136C090E080E00E94CF2860
:104530008C3E9E4F21F00E94BF110E942D1388E0F7
:1045400090E00E94C92860935306709354068093AC
:104550005506909356066E7F71F40E942D1388E0E5
:1045600090E00E94C928609353067093540680938C
:104570005506909356060E949C081092470680911B
:10458000530680FF04C060E086950E943A1681E0E1
:104590008093230652985A9A5198599A89B182FB6E
:1045A000882780F949994AC290E0892B8093300688
:1045B000609124066068609324061091250684E0CB
:1045C00090E00E94D528612F81E290E00E94D528DA
:1045D00085E191E0909327068093260680918100E3
:1045E0008860809381008091810081608093810048
:1045F0008FB7F89420ED33E0309389002093880042
:104600008FBF24E0E22EF12C3EEFC32E34E0D32EF8
:1046100088E496E046E0542E580E80918506853059
:1046200009F40EC20E94C00DE0E4F6E0A8E4B6E092
:1046300010E000E0302F8D919191981709F414C289
:10464000292F282790E0BB24B3944B2D422309F453
:1046500006C29DAB3EAB8B2191E009F490E09FAB8D
:104660000E9418068160782F99AF88AF4DA95EA986
:104670006FA989AD0E94EA1FF801E05CF94F8081C3
:10468000B826B08280914706882309F441C0809102
:104690004606E0915306E695E81BE0932A06823031
:1046A00009F0F9C1F0E0E45FFA4FE4910E2F10E059
:1046B0009CE9A92E9DE0B92E80912B06882389F0D4
:1046C00010922B060E941806980120953095820FB3
:1046D000931F909329068093280610922D0610921E
:1046E0002C0680912806909129060E9409068017C1
:1046F000910770F0E0912806F09129060E0F1F1F18
:10470000109329060093280688E296E0F5010995A2
:10471000E0913006EE0FEE0FE093300689B182FB98
:10472000662460F8499922C280E08629E82BE0934C
:104730003006EF70F0E0EA57FE4F808190912F062F
:10474000890F80932F0684302CF180912E068F5F85
:1047500080932E0612E018AB19AA81E08AAB0E9462
:1047600018068160782F9CAB8BAB48A959A96AA920
:104770008CA90E94EA1F1BA71CA61DA60E94180652
:104780008160782F9FA78EA74BA55CA56DA58FA5EF
:104790000E94EA1F80912F068D3F24F580912E06FE
:1047A000815080932E061EA21FA281E088A70E943E
:1047B00018068160782F9AA789A74EA15FA168A5E6
:1047C0008AA50E94EA1F19A21AA21BA20E9418061B
:1047D0008160782F9DA38CA349A15AA16BA18DA1C3
:1047E0000E94EA1F80912F06082E000C990BB7013A
:1047F0000E94372880932F0686E0E8E3F6E0DE018A
:10480000119601900D928A95E1F780913A06909168
:104810003B06892B09F468C08091360690913706D3
:104820000E9409069C0190913506992309F488C3DA
:104830002333310508F458C09F3F19F09F5F9093D0
:10484000350610923C0610923D0680913A061816E5
:1048500024F40E94810580933A0680913A0687FFEE
:1048600005C00E948105819580933A0680913B06A0
:10487000181624F40E94810580933B0680913B0624
:1048800087FF05C00E948105819580933B0630918A
:104890003A063323B1F020913B06222391F045EBF9
:1048A0003403C0011124992309F463C190933A069B
:1048B00045EB240390011124332309F45EC13093A6
:1048C0003B060E9424068091330690913406909313
:1048D00037068093360686E0FE013196A8E3B6E0FF
:1048E00001900D928A95E1F780913C0690913D06EA
:1048F000892B09F468C080913106909132060E949C
:1049000009069C0190913506992309F414C32536B4
:10491000310508F458C09F3F19F09F5F909335060A
:1049200010923A0610923B0680913C06181624F429
:104930000E945F0580933C0680913C0687FF05C07E
:104940000E945F05819580933C0680913D06181674
:1049500024F40E945F0580933D0680913D0687FF09
:1049600005C00E945F05819580933D0630913C060D
:104970003323B1F020913D06222391F045EB34031F
:10498000C0011124992309F4FCC090933C0645EB27
:10499000240390011124332309F4F7C030933D061A
:1049A0000E9424068091330690913406909332063B
:1049B0008093310686E0FE013196A8E3B6E00190CF
:1049C0000D928A95E1F70E942E0890913E06891774
:1049D00031F00E942E0880933E060E948E0980913D
:1049E0008506843009F019CE83E08093E900809138
:1049F000E80082FF12CE8091E80090E085FF0CC0B5
:104A00000E94410330E2A32EB12C8E010F5F1F4F95
:104A1000882309F4C8C091E08091E8008B778093E7
:104A2000E800992309F4F9CDE981E150E33108F078
:104A30000BC1F0E0EA55F64D0C944B2892E0B5CD51
:104A400080917B06882309F4E8CD0E94C00DE8E43C
:104A5000F6E08191811143C25E12FBCFDECD9F5FF4
:104A6000BB0C943009F0F1CD0F5F1F4F06301105DC
:104A700009F0E0CD8FEF8AAF8BAF1CAE0E94180615
:104A80008160782F9EAF8DAF4AAD5BAD6CAD8EADC2
:104A90000E94EA1FF7CD863059F4F0E0E75FFA4F45
:104AA000E4910E2F10E080EBA82E8DE0B82E04CEFE
:104AB000893061F4E695F0E0EA5FFA4FE4910E2F59
:104AC00010E0BFEDAB2EBBE0BB2EF6CD8F3061F416
:104AD000E695F0E0ED5FFA4FE4910E2F10E0A9E0CB
:104AE000AA2EACE0BA2EE8CD853159F4F0E0E050C2
:104AF000FB4FE4910E2F10E0F7E7AF2EFCE0BF2E46
:104B0000DBCD08EE13E065ECA62E6CE0B62E883106
:104B100009F4D2CD833241F4F60105911491E3E416
:104B2000AE2EEDE0BE2EC8CD04EF11E059EFA52E5C
:104B30005CE0B52E843209F4BFCD00ED17E04CEDFA
:104B4000A42E44E0B42E853209F0B6CD8E2F63E05A
:104B50000E940928E92FF0E0E550FB4FE4910E2F69
:104B600010E076E3A72E71E1B72EA6CD82E090E0AB
:104B7000DCCD81E080933A069BCE81E080933B06BA
:104B8000A0CE81E080933C0602CF81E080933D0679
:104B900007CF8091F100F80181938F01F1E0AF1A06
:104BA000B10809F438CF8091E80085FDF2CF8091FB
:104BB000E8008B778093E8000E944103882399F3F3
:104BC0002ACF1A8289E08B832CC08A81823009F433
:104BD000A9C18330A1F08130B9F52FB7F894609165
:104BE0004E0670914F0680915006909151062FBF4E
:104BF0000E9451286B837C838D839E8312C0809199
:104C000048068B83809149068C8380914A068D8368
:104C100080914B068E8380914C068F8380914D0648
:104C20008887CE0101960E949C03F7CC8A8182304E
:104C300059F46B817C818D819E810E94512885E28F
:104C400090E00E94D528EDCF8FEF8983EACF4C8189
:104C50006B818A810E948F0E9827892798279E83CF
:104C60008D83DFCF0D811E811027012710278A81B8
:104C7000AB8028E0A29E5001112440E3849FA00C49
:104C8000B11C11248C8190E0880F991FA80EB91EC9
:104C9000612FC50186960E94D528602FC501879691
:104CA000D0CF0E94BC10BDCF8A818138C1F060F4A2
:104CB000803809F0B6CF20E04B8160915506809195
:104CC00054060E945612ADCF823859F1833809F04C
:104CD000A8CF20E0409156066C818B81F2CF60E036
:104CE0008B810E943A169B8180915306911111C0CD
:104CF0008E7F80935306109247068FEF90E7E2E095
:104D000081509040E040E1F700C000000E94AA0BF3
:104D100088CF81608093530660E086950E943A16A2
:104D200080CF8B81809357067CCF8A81813899F020
:104D300030F4803809F075CF8091560644CF823820
:104D400091F0833809F06DCF809154068B83809168
:104D500055068C8366CF8091530680FF02C08695EE
:104D600032CF80E030CF809157062DCF609153062F
:104D70007091540680915506909156060E94221219
:104D800050CF80E18A834DCF86E08A838AE81BCFAB
:104D90000A811B81102701271027CE0101965C0193
:104DA0008C80FC01E80DF11D4F01C8018A589E4F0F
:104DB000A814B90409F435CF0A38F6E01F0750F4F7
:104DC0000E94C128F50184830F5F1F4FFFEFAF1AC8
:104DD000BF0AEBCFF5011482F7CF0A811B811027A0
:104DE00001271027CE0101964C01AC80A00EB12EF8
:104DF000B11CC8018A589E4F0A151B0509F411CF32
:104E00000A38E6E01E0720F4F40164810E94D528E8
:104E1000FFEF8F1A9F0A0F5F1F4FEBCF0E940E11FB
:104E200000CF87E0AFCF0A811B8110270127102711
:104E3000CE0101965C018C80FC01E80DF11D4F0153
:104E4000C80186968A149B0409F4EBCE0035F1E084
:104E50001F0750F40E94C128F50184830F5F1F4F84
:104E6000FFEFAF1ABF0AECCFF5011482F7CF0A812A
:104E70001B81102701271027CE0101964C01AC8021
:104E8000A00EB12EB11CC8018696A016B10609F479
:104E9000C8CE0035E1E01E0720F4F40164810E94D1
:104EA000D528FFEF8F1A9F0A0F5F1F4FECCF80E0CE
:104EB0000E941E116FEF7FEF90E080E00E94F328C8
:104EC000B0CECE0101960E949C032FEF41EE84E00C
:104ED000215040408040E1F700C00000E2CA88E174
:104EE00089BD8AE189BD09B400FEFDCF8091D8005B
:104EF0008F7D8093D8008091E00082608093E000F5
:104F00008091E00081FDFCCF88CB60E085E290E0FD
:104F10000E94D5280E94BC100E940E1181E00E94C0
:104F20001E11DFCA85E290E00E94C1281B821C820C
:104F30001D828E8376CE2D32314008F0EECC43CDEB
:104F40002D32314008F07ACCCFCC1F920F920FB6A1
:104F50000F9211242F933F934F935F936F937F93FF
:104F60008F939F93AF93BF93CF93EF93FF938091D2
:104F70001B0690911C06019690931C0680931B06BD
:104F8000C82F811103C082E00E948E09E0911C06A7
:104F9000E695E695F0E0E554FB4FE491EC1303C091
:104FA00080E00E948E09FF91EF91CF91BF91AF9168
:104FB0009F918F917F916F915F914F913F912F9131
:104FC0000F900FBE0F901F90189578941F921FB6E8
:104FD0001F9211248F939F93AF93BF9380914E069E
:104FE00090914F06A0915006B09151060196A11DD7
:104FF000B11D80934E0690934F06A0935006B09338
:105000005106BF91AF919F918F911F901FBE1F902E
:105010001895991B79E004C0991F961708F0961B04
:10502000881F7A95C9F78095089587FB082E062674
:1050300087FD819567FD61950E9409280EF4919581
:1050400007FC81950895AA1BBB1B51E107C0AA1F4D
:10505000BB1FA617B70710F0A61BB70B881F991F19
:105060005A95A9F780959095BC01CD01089597FBBD
:10507000072E16F4009407D077FD09D00E9423284C
:1050800007FC05D03EF4909581959F4F089570954B
:1050900061957F4F0895EE0FFF1F0590F491E02D6D
:1050A00009946927962769277827872778270895FD
:1050B0008F929F92AF92BF92CF92DF92EF92FF9228
:1050C000CF93DF93EC01688179818A819B8161159F
:1050D00071058105910521F464E279ED8BE597E096
:1050E0002DE133EF41E050E00E94092949015A01C6
:1050F0009B01AC01A7EAB1E40E9428296B017C0165
:10510000ACEEB4EFA50194010E943629DC01CB017D
:105110008C0D9D1DAE1DBF1DB7FF03C00197A109DA
:10512000B04888839983AA83BB839F77DF91CF910F
:10513000FF90EF90DF90CF90BF90AF909F908F90B7
:1051400008950E945828089580E091E00E94582810
:105150000895B0E0A0E08093000190930101A09336
:105160000201B09303010895FC014150504030F01A
:1051700001900616D1F73197CF0108958827992716
:105180000895F999FECF92BD81BDF89A992780B50F
:105190000895A6E1B0E044E050E00C94FB28A8E1BB
:1051A000B0E042E050E00C94FB28262FF999FECFA6
:1051B00092BD81BDF89A019700B4021639F01FBA6A
:1051C00020BD0FB6F894FA9AF99A0FBE0895039687
:1051D000272F0E94D6280E94D528252F0E94D62846
:1051E000242F0C94D6280196272F0E94D6280C94A1
:1051F000D528DC01CB01FC01F999FECF06C0F2BD38
:10520000E1BDF89A319600B40D9241505040B8F784
:105210000895052E97FB1EF400940E94202957FD47
:1052200007D00E943B2907FC03D04EF40C942029A0
:1052300050954095309521953F4F4F4F5F4F0895C2
:1052400090958095709561957F4F8F4F9F4F0895F2
:105250000E945D29A59F900DB49F900DA49F800D85
:10526000911D11240895B7FF0C9428290E94282924
:10527000821B930B0895A1E21A2EAA1BBB1BFD01F2
:105280000DC0AA1FBB1FEE1FFF1FA217B307E40725
:10529000F50720F0A21BB30BE40BF50B661F771F7D
:1052A000881F991F1A9469F760957095809590955D
:1052B0009B01AC01BD01CF010895A29FB001B39F36
:1052C000C001A39F700D811D1124911DB29F700D0F
:1052D000811D1124911D0895F894FFCFA710A710E8
:1052E000B010B010B210B010B010B010A710A710CE
:1052F000B710B010B010B71037145F14B2145F14A9
:10530000B2149214CA14B214D215DF15541B541BD4
:10531000C51BC51B1B1C351C891B891B401C161D6E
:10532000251D251D7B1AA21AA91AAE1AB31AB81A7E
:10533000BD1AC21AC71ACC1AD11AD61AD91ADE1A2D
:10534000E11AE41AE71AEA1AED1AF01AE125E5253E
:10535000162627263226512654269526B626572766
:105360006127C126C426C826ED260E27112713273C
:025370003727DD
:105372000100000001191A1B1C1D1E1F2021220101
:1053820002BC05C202DD04140AE909E509D30901D8
:105392000001020202020606060909090909090FAB
:1053A2000F0F0F0F0F1515151819191919191919AA
:1053B2001919192324252525252525818283E20013
:1053C200E900EA00B500B600B700CD008301CC00C9
:1053D2008A0192019401210223022402250226025B
:1053E20027022A02B300B4006F007000F034353691
:1053F2006667F6F7939600FF0100010000FFFF00C9
:1054020000010001FF004022BC76015401980022F5
:06541200053B055B0500EF
:00000001FF
